{
  "_format": "hh-sol-artifact-1",
  "contractName": "Crowdfund",
  "sourceName": "contracts/Crowdfund.sol",
  "abi": [
    {
      "inputs": [],
      "stateMutability": "nonpayable",
      "type": "constructor"
    },
    {
      "anonymous": false,
      "inputs": [
        {
          "indexed": false,
          "internalType": "uint256",
          "name": "amount",
          "type": "uint256"
        }
      ],
      "name": "DonationMade",
      "type": "event"
    },
    {
      "anonymous": false,
      "inputs": [
        {
          "indexed": false,
          "internalType": "uint256",
          "name": "id",
          "type": "uint256"
        }
      ],
      "name": "DonationReceived",
      "type": "event"
    },
    {
      "anonymous": false,
      "inputs": [
        {
          "indexed": false,
          "internalType": "uint256",
          "name": "id",
          "type": "uint256"
        }
      ],
      "name": "FundCreated",
      "type": "event"
    },
    {
      "anonymous": false,
      "inputs": [
        {
          "indexed": true,
          "internalType": "address",
          "name": "previousOwner",
          "type": "address"
        },
        {
          "indexed": true,
          "internalType": "address",
          "name": "newOwner",
          "type": "address"
        }
      ],
      "name": "OwnershipTransferred",
      "type": "event"
    },
    {
      "inputs": [],
      "name": "admin",
      "outputs": [
        {
          "internalType": "address",
          "name": "",
          "type": "address"
        }
      ],
      "stateMutability": "view",
      "type": "function"
    },
    {
      "inputs": [
        {
          "internalType": "uint256",
          "name": "_fundId",
          "type": "uint256"
        }
      ],
      "name": "checkFunding",
      "outputs": [
        {
          "internalType": "uint256",
          "name": "",
          "type": "uint256"
        }
      ],
      "stateMutability": "view",
      "type": "function"
    },
    {
      "inputs": [
        {
          "internalType": "uint256",
          "name": "_fundId",
          "type": "uint256"
        }
      ],
      "name": "contribute",
      "outputs": [],
      "stateMutability": "payable",
      "type": "function"
    },
    {
      "inputs": [
        {
          "internalType": "string",
          "name": "_title",
          "type": "string"
        },
        {
          "internalType": "string",
          "name": "_description",
          "type": "string"
        },
        {
          "internalType": "uint256",
          "name": "_end",
          "type": "uint256"
        },
        {
          "internalType": "uint256",
          "name": "_target",
          "type": "uint256"
        },
        {
          "internalType": "address payable",
          "name": "_donationRecipient",
          "type": "address"
        }
      ],
      "name": "createFund",
      "outputs": [],
      "stateMutability": "nonpayable",
      "type": "function"
    },
    {
      "inputs": [],
      "name": "getAllFunds",
      "outputs": [
        {
          "components": [
            {
              "internalType": "uint256",
              "name": "id",
              "type": "uint256"
            },
            {
              "internalType": "uint256",
              "name": "target",
              "type": "uint256"
            },
            {
              "internalType": "uint256",
              "name": "currentAmount",
              "type": "uint256"
            },
            {
              "internalType": "uint256",
              "name": "end",
              "type": "uint256"
            },
            {
              "internalType": "string",
              "name": "title",
              "type": "string"
            },
            {
              "internalType": "string",
              "name": "description",
              "type": "string"
            },
            {
              "internalType": "address payable",
              "name": "donationRecipient",
              "type": "address"
            },
            {
              "internalType": "address",
              "name": "owner",
              "type": "address"
            },
            {
              "internalType": "bool",
              "name": "active",
              "type": "bool"
            }
          ],
          "internalType": "struct Crowdfund.Fund[]",
          "name": "",
          "type": "tuple[]"
        }
      ],
      "stateMutability": "view",
      "type": "function"
    },
    {
      "inputs": [],
      "name": "initialize",
      "outputs": [],
      "stateMutability": "nonpayable",
      "type": "function"
    },
    {
      "inputs": [],
      "name": "owner",
      "outputs": [
        {
          "internalType": "address",
          "name": "",
          "type": "address"
        }
      ],
      "stateMutability": "view",
      "type": "function"
    },
    {
      "inputs": [
        {
          "internalType": "uint256",
          "name": "_fundId",
          "type": "uint256"
        }
      ],
      "name": "processRefund",
      "outputs": [],
      "stateMutability": "nonpayable",
      "type": "function"
    },
    {
      "inputs": [],
      "name": "renounceOwnership",
      "outputs": [],
      "stateMutability": "nonpayable",
      "type": "function"
    },
    {
      "inputs": [],
      "name": "toggleContract",
      "outputs": [],
      "stateMutability": "nonpayable",
      "type": "function"
    },
    {
      "inputs": [
        {
          "internalType": "address",
          "name": "newOwner",
          "type": "address"
        }
      ],
      "name": "transferOwnership",
      "outputs": [],
      "stateMutability": "nonpayable",
      "type": "function"
    }
  ],
  "bytecode": "0x60806040526000600260146101000a81548160ff02191690831515021790555060026006553480156200003157600080fd5b5062000052620000466200005860201b60201c565b6200006060201b60201c565b62000124565b600033905090565b60008060009054906101000a900473ffffffffffffffffffffffffffffffffffffffff169050816000806101000a81548173ffffffffffffffffffffffffffffffffffffffff021916908373ffffffffffffffffffffffffffffffffffffffff1602179055508173ffffffffffffffffffffffffffffffffffffffff168173ffffffffffffffffffffffffffffffffffffffff167f8be0079c531659141344cd1fd0a4f28419497f9722a3daafe3b4186f6b6457e060405160405180910390a35050565b612cd380620001346000396000f3fe60806040526004361061009c5760003560e01c80639df90028116100645780639df900281461014e578063c1cbbca714610165578063dac87ca414610181578063e49a7c91146101aa578063f2fde38b146101e7578063f851a440146102105761009c565b80631c69b464146100a15780632c33adc0146100cc578063715018a6146100f55780638129fc1c1461010c5780638da5cb5b14610123575b600080fd5b3480156100ad57600080fd5b506100b661023b565b6040516100c3919061259e565b60405180910390f35b3480156100d857600080fd5b506100f360048036038101906100ee91906121d6565b6104ae565b005b34801561010157600080fd5b5061010a61087e565b005b34801561011857600080fd5b50610121610906565b005b34801561012f57600080fd5b506101386109ba565b6040516101459190612583565b60405180910390f35b34801561015a57600080fd5b506101636109e3565b005b61017f600480360381019061017a919061227d565b610ab9565b005b34801561018d57600080fd5b506101a860048036038101906101a3919061227d565b610f55565b005b3480156101b657600080fd5b506101d160048036038101906101cc919061227d565b611633565b6040516101de91906126a0565b60405180910390f35b3480156101f357600080fd5b5061020e600480360381019061020991906121ad565b611877565b005b34801561021c57600080fd5b5061022561196f565b6040516102329190612583565b60405180910390f35b60606008805480602002602001604051908101604052809291908181526020016000905b828210156104a5578382906000526020600020906008020160405180610120016040529081600082015481526020016001820154815260200160028201548152602001600382015481526020016004820180546102bb90612928565b80601f01602080910402602001604051908101604052809291908181526020018280546102e790612928565b80156103345780601f1061030957610100808354040283529160200191610334565b820191906000526020600020905b81548152906001019060200180831161031757829003601f168201915b5050505050815260200160058201805461034d90612928565b80601f016020809104026020016040519081016040528092919081815260200182805461037990612928565b80156103c65780601f1061039b576101008083540402835291602001916103c6565b820191906000526020600020905b8154815290600101906020018083116103a957829003601f168201915b505050505081526020016006820160009054906101000a900473ffffffffffffffffffffffffffffffffffffffff1673ffffffffffffffffffffffffffffffffffffffff1673ffffffffffffffffffffffffffffffffffffffff1681526020016007820160009054906101000a900473ffffffffffffffffffffffffffffffffffffffff1673ffffffffffffffffffffffffffffffffffffffff1673ffffffffffffffffffffffffffffffffffffffff1681526020016007820160149054906101000a900460ff1615151515815250508152602001906001019061025f565b50505050905090565b6001600260146101000a81548160ff0219169083151502179055610507576040517f08c379a00000000000000000000000000000000000000000000000000000000081526004016104fe90612600565b60405180910390fd5b60006105136001611995565b90506000604051806101200160405280838152602001858152602001600081526020018681526020018881526020018781526020018473ffffffffffffffffffffffffffffffffffffffff1681526020013373ffffffffffffffffffffffffffffffffffffffff16815260200160011515815250905080600360008481526020019081526020016000206000820151816000015560208201518160010155604082015181600201556060820151816003015560808201518160040190805190602001906105e1929190612063565b5060a08201518160050190805190602001906105fe929190612063565b5060c08201518160060160006101000a81548173ffffffffffffffffffffffffffffffffffffffff021916908373ffffffffffffffffffffffffffffffffffffffff16021790555060e08201518160070160006101000a81548173ffffffffffffffffffffffffffffffffffffffff021916908373ffffffffffffffffffffffffffffffffffffffff1602179055506101008201518160070160146101000a81548160ff02191690831515021790555090505081600460003373ffffffffffffffffffffffffffffffffffffffff1673ffffffffffffffffffffffffffffffffffffffff168152602001908152602001600020819055506008819080600181540180825580915050600190039060005260206000209060080201600090919091909150600082015181600001556020820151816001015560408201518160020155606082015181600301556080820151816004019080519060200190610765929190612063565b5060a0820151816005019080519060200190610782929190612063565b5060c08201518160060160006101000a81548173ffffffffffffffffffffffffffffffffffffffff021916908373ffffffffffffffffffffffffffffffffffffffff16021790555060e08201518160070160006101000a81548173ffffffffffffffffffffffffffffffffffffffff021916908373ffffffffffffffffffffffffffffffffffffffff1602179055506101008201518160070160146101000a81548160ff02191690831515021790555050507fec41606da1b7e318a73aa4bf363741fa612f34a0bdc09cf8e6b3417289ad1a518260405161086391906126a0565b60405180910390a161087560016119a3565b50505050505050565b6108866119b9565b73ffffffffffffffffffffffffffffffffffffffff166108a46109ba565b73ffffffffffffffffffffffffffffffffffffffff16146108fa576040517f08c379a00000000000000000000000000000000000000000000000000000000081526004016108f190612620565b60405180910390fd5b61090460006119c1565b565b60001515600260149054906101000a900460ff1615151461095c576040517f08c379a0000000000000000000000000000000000000000000000000000000008152600401610953906125e0565b60405180910390fd5b33600260006101000a81548173ffffffffffffffffffffffffffffffffffffffff021916908373ffffffffffffffffffffffffffffffffffffffff1602179055506001600260146101000a81548160ff021916908315150217905550565b60008060009054906101000a900473ffffffffffffffffffffffffffffffffffffffff16905090565b6109eb6119b9565b73ffffffffffffffffffffffffffffffffffffffff16610a096109ba565b73ffffffffffffffffffffffffffffffffffffffff1614610a5f576040517f08c379a0000000000000000000000000000000000000000000000000000000008152600401610a5690612620565b60405180910390fd5b60011515600260149054906101000a900460ff1615151415610a9b576000600260146101000a81548160ff021916908315150217905550610ab7565b6001600260146101000a81548160ff0219169083151502179055505b565b6001600260146101000a81548160ff0219169083151502179055610b12576040517f08c379a0000000000000000000000000000000000000000000000000000000008152600401610b0990612600565b60405180910390fd5b806000600360008381526020019081526020016000206040518061012001604052908160008201548152602001600182015481526020016002820154815260200160038201548152602001600482018054610b6c90612928565b80601f0160208091040260200160405190810160405280929190818152602001828054610b9890612928565b8015610be55780601f10610bba57610100808354040283529160200191610be5565b820191906000526020600020905b815481529060010190602001808311610bc857829003601f168201915b50505050508152602001600582018054610bfe90612928565b80601f0160208091040260200160405190810160405280929190818152602001828054610c2a90612928565b8015610c775780601f10610c4c57610100808354040283529160200191610c77565b820191906000526020600020905b815481529060010190602001808311610c5a57829003601f168201915b505050505081526020016006820160009054906101000a900473ffffffffffffffffffffffffffffffffffffffff1673ffffffffffffffffffffffffffffffffffffffff1673ffffffffffffffffffffffffffffffffffffffff1681526020016007820160009054906101000a900473ffffffffffffffffffffffffffffffffffffffff1673ffffffffffffffffffffffffffffffffffffffff1673ffffffffffffffffffffffffffffffffffffffff1681526020016007820160149054906101000a900460ff161515151581525050905060011515816101000151151514610d95576040517f08c379a0000000000000000000000000000000000000000000000000000000008152600401610d8c90612640565b60405180910390fd5b600060036000858152602001908152602001600020905034816002016000828254610dc09190612777565b9250508190555060056000858152602001908152602001600020339080600181540180825580915050600190039060005260206000200160009091909190916101000a81548173ffffffffffffffffffffffffffffffffffffffff021916908373ffffffffffffffffffffffffffffffffffffffff16021790555034600760003373ffffffffffffffffffffffffffffffffffffffff1673ffffffffffffffffffffffffffffffffffffffff16815260200190815260200160002060008681526020019081526020016000206000828254610e9b9190612777565b925050819055508060010154816002015410610f18576000610ec08260020154611a85565b9050610ef08260060160009054906101000a900473ffffffffffffffffffffffffffffffffffffffff1682611ab6565b6000610f09828460020154611b3890919063ffffffff16565b9050610f158682611b4e565b50505b7f9874a7967abbb8701e946ae29391c091f59962f042ba4b5d99b1ed7f2e2e3e5584604051610f4791906126a0565b60405180910390a150505050565b806000805b6005600084815260200190815260200160002080549050811161103c573373ffffffffffffffffffffffffffffffffffffffff16600560008581526020019081526020016000208281548110610fd9577f4e487b7100000000000000000000000000000000000000000000000000000000600052603260045260246000fd5b9060005260206000200160009054906101000a900473ffffffffffffffffffffffffffffffffffffffff1673ffffffffffffffffffffffffffffffffffffffff1614156110255761103c565b6001915080806110349061298b565b915050610f5a565b506001151581151514806110b157503373ffffffffffffffffffffffffffffffffffffffff166003600084815260200190815260200160002060070160009054906101000a900473ffffffffffffffffffffffffffffffffffffffff1673ffffffffffffffffffffffffffffffffffffffff16145b6110f0576040517f08c379a00000000000000000000000000000000000000000000000000000000081526004016110e790612680565b60405180910390fd5b82600060036000838152602001908152602001600020604051806101200160405290816000820154815260200160018201548152602001600282015481526020016003820154815260200160048201805461114a90612928565b80601f016020809104026020016040519081016040528092919081815260200182805461117690612928565b80156111c35780601f10611198576101008083540402835291602001916111c3565b820191906000526020600020905b8154815290600101906020018083116111a657829003601f168201915b505050505081526020016005820180546111dc90612928565b80601f016020809104026020016040519081016040528092919081815260200182805461120890612928565b80156112555780601f1061122a57610100808354040283529160200191611255565b820191906000526020600020905b81548152906001019060200180831161123857829003601f168201915b505050505081526020016006820160009054906101000a900473ffffffffffffffffffffffffffffffffffffffff1673ffffffffffffffffffffffffffffffffffffffff1673ffffffffffffffffffffffffffffffffffffffff1681526020016007820160009054906101000a900473ffffffffffffffffffffffffffffffffffffffff1673ffffffffffffffffffffffffffffffffffffffff1673ffffffffffffffffffffffffffffffffffffffff1681526020016007820160149054906101000a900460ff161515151581525050905060011515816101000151151514611373576040517f08c379a000000000000000000000000000000000000000000000000000000000815260040161136a90612640565b60405180910390fd5b60006003600087815260200190815260200160002060405180610120016040529081600082015481526020016001820154815260200160028201548152602001600382015481526020016004820180546113cc90612928565b80601f01602080910402602001604051908101604052809291908181526020018280546113f890612928565b80156114455780601f1061141a57610100808354040283529160200191611445565b820191906000526020600020905b81548152906001019060200180831161142857829003601f168201915b5050505050815260200160058201805461145e90612928565b80601f016020809104026020016040519081016040528092919081815260200182805461148a90612928565b80156114d75780601f106114ac576101008083540402835291602001916114d7565b820191906000526020600020905b8154815290600101906020018083116114ba57829003601f168201915b505050505081526020016006820160009054906101000a900473ffffffffffffffffffffffffffffffffffffffff1673ffffffffffffffffffffffffffffffffffffffff1673ffffffffffffffffffffffffffffffffffffffff1681526020016007820160009054906101000a900473ffffffffffffffffffffffffffffffffffffffff1673ffffffffffffffffffffffffffffffffffffffff1673ffffffffffffffffffffffffffffffffffffffff1681526020016007820160149054906101000a900460ff1615151515815250509050806040015181602001511080156115c35750428160600151105b611602576040517f08c379a00000000000000000000000000000000000000000000000000000000081526004016115f990612660565b60405180910390fd5b60006116118260400151611a85565b905061161c87611e77565b61162a8260c0015182611ab6565b50505050505050565b60008060036000848152602001908152602001600020604051806101200160405290816000820154815260200160018201548152602001600282015481526020016003820154815260200160048201805461168d90612928565b80601f01602080910402602001604051908101604052809291908181526020018280546116b990612928565b80156117065780601f106116db57610100808354040283529160200191611706565b820191906000526020600020905b8154815290600101906020018083116116e957829003601f168201915b5050505050815260200160058201805461171f90612928565b80601f016020809104026020016040519081016040528092919081815260200182805461174b90612928565b80156117985780601f1061176d57610100808354040283529160200191611798565b820191906000526020600020905b81548152906001019060200180831161177b57829003601f168201915b505050505081526020016006820160009054906101000a900473ffffffffffffffffffffffffffffffffffffffff1673ffffffffffffffffffffffffffffffffffffffff1673ffffffffffffffffffffffffffffffffffffffff1681526020016007820160009054906101000a900473ffffffffffffffffffffffffffffffffffffffff1673ffffffffffffffffffffffffffffffffffffffff1673ffffffffffffffffffffffffffffffffffffffff1681526020016007820160149054906101000a900460ff16151515158152505090508060400151915050919050565b61187f6119b9565b73ffffffffffffffffffffffffffffffffffffffff1661189d6109ba565b73ffffffffffffffffffffffffffffffffffffffff16146118f3576040517f08c379a00000000000000000000000000000000000000000000000000000000081526004016118ea90612620565b60405180910390fd5b600073ffffffffffffffffffffffffffffffffffffffff168173ffffffffffffffffffffffffffffffffffffffff161415611963576040517f08c379a000000000000000000000000000000000000000000000000000000000815260040161195a906125c0565b60405180910390fd5b61196c816119c1565b50565b600260009054906101000a900473ffffffffffffffffffffffffffffffffffffffff1681565b600081600001549050919050565b6001816000016000828254019250508190555050565b600033905090565b60008060009054906101000a900473ffffffffffffffffffffffffffffffffffffffff169050816000806101000a81548173ffffffffffffffffffffffffffffffffffffffff021916908373ffffffffffffffffffffffffffffffffffffffff1602179055508173ffffffffffffffffffffffffffffffffffffffff168173ffffffffffffffffffffffffffffffffffffffff167f8be0079c531659141344cd1fd0a4f28419497f9722a3daafe3b4186f6b6457e060405160405180910390a35050565b6000611aaf6064611aa16006548561203790919063ffffffff16565b61204d90919063ffffffff16565b9050919050565b8173ffffffffffffffffffffffffffffffffffffffff166108fc829081150290604051600060405180830381858888f19350505050158015611afc573d6000803e3d6000fd5b507feb3301a94d74dc3ee739ec081ebeaf60c5e72b48aef0402c21c9f049f84c962281604051611b2c91906126a0565b60405180910390a15050565b60008183611b469190612858565b905092915050565b816000600360008381526020019081526020016000206040518061012001604052908160008201548152602001600182015481526020016002820154815260200160038201548152602001600482018054611ba890612928565b80601f0160208091040260200160405190810160405280929190818152602001828054611bd490612928565b8015611c215780601f10611bf657610100808354040283529160200191611c21565b820191906000526020600020905b815481529060010190602001808311611c0457829003601f168201915b50505050508152602001600582018054611c3a90612928565b80601f0160208091040260200160405190810160405280929190818152602001828054611c6690612928565b8015611cb35780601f10611c8857610100808354040283529160200191611cb3565b820191906000526020600020905b815481529060010190602001808311611c9657829003601f168201915b505050505081526020016006820160009054906101000a900473ffffffffffffffffffffffffffffffffffffffff1673ffffffffffffffffffffffffffffffffffffffff1673ffffffffffffffffffffffffffffffffffffffff1681526020016007820160009054906101000a900473ffffffffffffffffffffffffffffffffffffffff1673ffffffffffffffffffffffffffffffffffffffff1673ffffffffffffffffffffffffffffffffffffffff1681526020016007820160149054906101000a900460ff161515151581525050905060011515816101000151151514611dd1576040517f08c379a0000000000000000000000000000000000000000000000000000000008152600401611dc890612640565b60405180910390fd5b60006003600086815260200190815260200160002090508060070160009054906101000a900473ffffffffffffffffffffffffffffffffffffffff1673ffffffffffffffffffffffffffffffffffffffff166108fc859081150290604051600060405180830381858888f19350505050158015611e52573d6000803e3d6000fd5b5060008160070160146101000a81548160ff0219169083151502179055505050505050565b60005b6005600083815260200190815260200160002080549050811015612033576000600560008481526020019081526020016000208281548110611ee5577f4e487b7100000000000000000000000000000000000000000000000000000000600052603260045260246000fd5b9060005260206000200160009054906101000a900473ffffffffffffffffffffffffffffffffffffffff1690506000611f6d600760008473ffffffffffffffffffffffffffffffffffffffff1673ffffffffffffffffffffffffffffffffffffffff168152602001908152602001600020600086815260200190815260200160002054611a85565b90506000611fd482600760008673ffffffffffffffffffffffffffffffffffffffff1673ffffffffffffffffffffffffffffffffffffffff168152602001908152602001600020600088815260200190815260200160002054611b3890919063ffffffff16565b90508273ffffffffffffffffffffffffffffffffffffffff166108fc829081150290604051600060405180830381858888f1935050505015801561201c573d6000803e3d6000fd5b50505050808061202b9061298b565b915050611e7a565b5050565b6000818361204591906127fe565b905092915050565b6000818361205b91906127cd565b905092915050565b82805461206f90612928565b90600052602060002090601f01602090048101928261209157600085556120d8565b82601f106120aa57805160ff19168380011785556120d8565b828001600101855582156120d8579182015b828111156120d75782518255916020019190600101906120bc565b5b5090506120e591906120e9565b5090565b5b808211156121025760008160009055506001016120ea565b5090565b6000612119612114846126e0565b6126bb565b90508281526020810184848401111561213157600080fd5b61213c8482856128e6565b509392505050565b60008135905061215381612c58565b92915050565b60008135905061216881612c6f565b92915050565b600082601f83011261217f57600080fd5b813561218f848260208601612106565b91505092915050565b6000813590506121a781612c86565b92915050565b6000602082840312156121bf57600080fd5b60006121cd84828501612144565b91505092915050565b600080600080600060a086880312156121ee57600080fd5b600086013567ffffffffffffffff81111561220857600080fd5b6122148882890161216e565b955050602086013567ffffffffffffffff81111561223157600080fd5b61223d8882890161216e565b945050604061224e88828901612198565b935050606061225f88828901612198565b925050608061227088828901612159565b9150509295509295909350565b60006020828403121561228f57600080fd5b600061229d84828501612198565b91505092915050565b60006122b28383612499565b905092915050565b6122c38161289e565b82525050565b6122d28161288c565b82525050565b6122e18161288c565b82525050565b60006122f282612721565b6122fc8185612744565b93508360208202850161230e85612711565b8060005b8581101561234a578484038952815161232b85826122a6565b945061233683612737565b925060208a01995050600181019050612312565b50829750879550505050505092915050565b612365816128b0565b82525050565b60006123768261272c565b6123808185612755565b93506123908185602086016128f5565b61239981612a90565b840191505092915050565b60006123b1602683612766565b91506123bc82612aa1565b604082019050919050565b60006123d4602783612766565b91506123df82612af0565b604082019050919050565b60006123f7601e83612766565b915061240282612b3f565b602082019050919050565b600061241a602083612766565b915061242582612b68565b602082019050919050565b600061243d601683612766565b915061244882612b91565b602082019050919050565b6000612460604383612766565b915061246b82612bba565b606082019050919050565b6000612483601f83612766565b915061248e82612c2f565b602082019050919050565b6000610120830160008301516124b26000860182612565565b5060208301516124c56020860182612565565b5060408301516124d86040860182612565565b5060608301516124eb6060860182612565565b5060808301518482036080860152612503828261236b565b91505060a083015184820360a086015261251d828261236b565b91505060c083015161253260c08601826122ba565b5060e083015161254560e08601826122c9565b5061010083015161255a61010086018261235c565b508091505092915050565b61256e816128dc565b82525050565b61257d816128dc565b82525050565b600060208201905061259860008301846122d8565b92915050565b600060208201905081810360008301526125b881846122e7565b905092915050565b600060208201905081810360008301526125d9816123a4565b9050919050565b600060208201905081810360008301526125f9816123c7565b9050919050565b60006020820190508181036000830152612619816123ea565b9050919050565b600060208201905081810360008301526126398161240d565b9050919050565b6000602082019050818103600083015261265981612430565b9050919050565b6000602082019050818103600083015261267981612453565b9050919050565b6000602082019050818103600083015261269981612476565b9050919050565b60006020820190506126b56000830184612574565b92915050565b60006126c56126d6565b90506126d1828261295a565b919050565b6000604051905090565b600067ffffffffffffffff8211156126fb576126fa612a61565b5b61270482612a90565b9050602081019050919050565b6000819050602082019050919050565b600081519050919050565b600081519050919050565b6000602082019050919050565b600082825260208201905092915050565b600082825260208201905092915050565b600082825260208201905092915050565b6000612782826128dc565b915061278d836128dc565b9250827fffffffffffffffffffffffffffffffffffffffffffffffffffffffffffffffff038211156127c2576127c16129d4565b5b828201905092915050565b60006127d8826128dc565b91506127e3836128dc565b9250826127f3576127f2612a03565b5b828204905092915050565b6000612809826128dc565b9150612814836128dc565b9250817fffffffffffffffffffffffffffffffffffffffffffffffffffffffffffffffff048311821515161561284d5761284c6129d4565b5b828202905092915050565b6000612863826128dc565b915061286e836128dc565b925082821015612881576128806129d4565b5b828203905092915050565b6000612897826128bc565b9050919050565b60006128a9826128bc565b9050919050565b60008115159050919050565b600073ffffffffffffffffffffffffffffffffffffffff82169050919050565b6000819050919050565b82818337600083830152505050565b60005b838110156129135780820151818401526020810190506128f8565b83811115612922576000848401525b50505050565b6000600282049050600182168061294057607f821691505b6020821081141561295457612953612a32565b5b50919050565b61296382612a90565b810181811067ffffffffffffffff8211171561298257612981612a61565b5b80604052505050565b6000612996826128dc565b91507fffffffffffffffffffffffffffffffffffffffffffffffffffffffffffffffff8214156129c9576129c86129d4565b5b600182019050919050565b7f4e487b7100000000000000000000000000000000000000000000000000000000600052601160045260246000fd5b7f4e487b7100000000000000000000000000000000000000000000000000000000600052601260045260246000fd5b7f4e487b7100000000000000000000000000000000000000000000000000000000600052602260045260246000fd5b7f4e487b7100000000000000000000000000000000000000000000000000000000600052604160045260246000fd5b6000601f19601f8301169050919050565b7f4f776e61626c653a206e6577206f776e657220697320746865207a65726f206160008201527f6464726573730000000000000000000000000000000000000000000000000000602082015250565b7f436f6e7472616374206d757374206e6f742068617665206265656e20696e697460008201527f69616c697a656400000000000000000000000000000000000000000000000000602082015250565b7f436f6e74726163742069732063757272656e746c7920696e6163746976650000600082015250565b7f4f776e61626c653a2063616c6c6572206973206e6f7420746865206f776e6572600082015250565b7f546869732066756e6420697320696e6163746976652e00000000000000000000600082015250565b7f46756e6420636f6c6c656374696f6e206d757374206861766520656e6465642060008201527f616e642074686520676f616c206d757374206e6f742068617665206265656e2060208201527f6d65740000000000000000000000000000000000000000000000000000000000604082015250565b7f43616c6c6572206d757374206265206120646f6e6f72206f72206f776e657200600082015250565b612c618161288c565b8114612c6c57600080fd5b50565b612c788161289e565b8114612c8357600080fd5b50565b612c8f816128dc565b8114612c9a57600080fd5b5056fea264697066735822122014e8fb346b8cf65dd3df1b1d0eee53915f527ee1475bdb5452deb17973da718f64736f6c63430008040033",
  "linkReferences": {},
  "deployedLinkReferences": {}
}